-----------
-----------
Test file for decode2.py

To Run this test : 

python3 -m doctest -v test_decode2.txt

-----------
-----------

>>> decoder = __import__('decode2').decoder
>>> decoder()
Raw Transaction in Hex: 020000000001010ccc140e766b5dbc884ea2d780c5e91e4eb77597ae64288a42575228b79e234900000000000000000002bd37060000000000225120245091249f4f29d30820e5f36e1e5d477dc3386144220bd6f35839e94de4b9cae81c00000000000016001416d31d7632aa17b3b316b813c0a3177f5b6150200140838a1f0f1ee607b54abf0a3f55792f6f8d09c3eb7a9fa46cd4976f2137ca2e3f4a901e314e1b827c3332d7e1865ffe1d7ff5f5d7576a9000f354487a09de44cd00000000
<BLANKLINE>
Version : 2
<BLANKLINE>
-----Inputs-----
Number of input : 1
Input_0
Input Trx ID : 49239eb7285257428a2864ae9775b74e1ee9c580d7a24e88bc5d6b760e14cc0c
<BLANKLINE>
-----Outputs-----
Number of output : 2
Output_0
Amount Output_0 : 407485
Output_0 Script : 5120245091249f4f29d30820e5f36e1e5d477dc3386144220bd6f35839e94de4b9ca
Output_1
Amount Output_1 : 7400
Output_1 Script : 001416d31d7632aa17b3b316b813c0a3177f5b615020
<BLANKLINE>
Locktime 00000000